S019000041544D65676133325F436F6D706C6574652E73726563FF
S11300000C942A000C94A9040C94D6040C940305B3
S11300100C9447000C9447000C94CE050C94D8051E
S11300200C9422060C946C060C947B050C943005FD
S11300300C9447000C9447000C9447000C94470020
S11300400C941F030C9447000C9447000C94470035
S11300500C94470011241FBECFE5D8E0DEBFCDBF0E
S113006010E0A0E6B0E0E2EDFDE002C005900D92E4
S1130070AE3EB107D9F721E0AEEEB0E001C01D926B
S1130080A433B207E1F70E9405010C94E7060C942F
S113009000000F931F93CF9362E3C0E0AEC00C2F18
S11300A010E0F801EE0FFF1FC801880F991F880F99
S11300B0991F880F991FE80FF91FE459FF4F80819A
S11300C09181AC01425E5F4F209132013091330146
S11300D04217530708F490C04E972817390708F4BD
S11300E08BC0C801880F991F880F991F880F991F0B
S11300F0F801EE0FFF1FE80FF91FE459FF4F82814B
S11301009381AC01425E5F4F20912C0130912D010F
S11301104217530708F470C04E972817390708F49C
S11301206BC0C801880F991F880F991F880F991FEA
S1130130F801EE0FFF1FE80FF91FE459FF4F848108
S11301409581AC01425E5F4F20912A0130912B01D1
S11301504217530708F450C04E972817390708F47C
S11301604BC0C801880F991F880F991F880F991FCA
S1130170F801EE0FFF1FE80FF91FE459FF4F8681C6
S11301809781AC01425E5F4F209130013091310183
S11301904217530788F14E972817390768F1C801A9
S11301A0880F991F880F991F880F991FF801EE0F68
S11301B0FF1FE80FF91FE459FF4F80859185AC01BB
S11301C0425E5F4F20912E0130912F014217530759
S11301D098F04E972817390778F0C61769F081E030
S11301E00E943902F801EE0FFF1FE05AFF4F808191
S11301F091810E9461026C2FCF5FC63008F44FCF0B
S11302007894CF911F910F9108950E94CC010F2EE5
S1130210F9E4EF2EF0E0FF2EF02D0EE211E020E3E2
S113022031E04AE251E06CE271E082E391E00E9445
S113023006030E94F30278940E9402032FEF84E3E2
S11302409CE0215080409040E1F700C0000081E034
S11302500E94390261E081E00E94D802609132017B
S11302607091330180E090E00E94790280E20E9464
S11302704D0260912C0170912D0180E090E00E946C
S1130280790280E20E944D0260912A0170912B0153
S113029080E090E00E94790280E20E944D0261E0D9
S11302A082E00E94D802609130017091310180E0B7
S11302B090E00E94790280E20E944D0260912E013A
S11302C070912F0180E090E00E947902B7CFCF9324
S11302D0C82F60E08CE00E94160460E08DE00E946C
S11302E016046C2F661F6627661F81E10E941604A0
S11302F0C6FB662760F980E10E941604C5FB6627E9
S113030060F98FE00E941604C4FB662760F98EE052
S11303100E94160461E08DE00E9416048FE39CE9BC
S11303200197F1F700C0000060E08DE00E94160420
S11303308FE39CE90197F1F700C00000C3FB662737
S113034060F981E10E941604C2FB662760F980E12E
S11303500E941604C1FB662760F98FE00E94160410
S11303606C2F61708EE00E94160461E08DE00E94A3
S113037016048FE19EE40197F1F700C0000060E0ED
S11303808DE00E9416048FE19EE40197F1F700C00E
S1130390000081E0CF9108952FE785EB91E0215093
S11303A080409040E1F700C0000061E08BE00E94D3
S11303B0830361E08CE00E94830361E08DE00E948E
S11303C0830361E081E10E94830361E080E10E9494
S11303D0830361E08FE00E94830361E08EE00E946A
S11303E0830360E08BE00E94160460E081E10E94D8
S11303F0160460E080E10E94160461E08FE00E9430
S1130400160460E08EE00E94160461E08DE00E9414
S113041016048FE19EE40197F1F700C0000060E04C
S11304208DE00E9416048FE19EE40197F1F700C06D
S1130430000088E20E9467018FE99FE00197F1F7CD
S113044000C000008CE00E9467018FE99FE00197E3
S1130450F1F700C0000081E00E9467018FE39FE193
S11304600197F1F700C0000086E00E94670181E077
S11304700895CF93C82F60E08BE00E94160460E0DB
S11304808CE00E94160460E08DE00E9416048C2F1C
S11304900E94670181E0CF910895CF93C82F61E056
S11304A08BE00E94160460E08CE00E94160460E079
S11304B08DE00E9416048C2F0E94670181E0CF9189
S11304C008950F931F93CF93009731F483E00DC0E9
S11304D0CF5F0E944D0202C08C01C0E0F801EC0F16
S11304E0F11D80818111F4CF81E0CF911F910F9193
S11304F00895CF92DF92EF92FF920F931F93CF93C1
S11305008B019C01672B682B692B51F580E30E94BA
S11305104D0245C0CF5FDC01CB01880F991FAA1F94
S1130520BB1F6C017D01CC0CDD1CEE1CFF1CCC0C34
S1130530DD1CEE1CFF1CC80ED91EEA1EFB1EC901E1
S1130540B8012AE030E040E050E00E94C5066C0D9E
S11305507D1D8E1D9F1D022F132F242F352F04C0A8
S1130560C0E060E070E0CB01011511052105310503
S113057089F613C02AE030E040E050E00E94C5064E
S1130580E22EF32E042F152F80E3860F0E944D02D6
S11305906E2D7F2D802F912FC150C111EBCF81E0A3
S11305A0CF911F910F91FF90EF90DF90CF9008951E
S11305B0833098F4613198F4813019F0823039F045
S11305C010C08FE7860F0E94390281E008958FEBF7
S11305D0860F0E94390281E0089582E0089582E046
S11305E0089582E0089586B1806886B986B18064F2
S11305F086B983E487B986B1876086B986B1886095
S113060086B9089586B1806486B908950F931F93BF
S11306109093F7008093F6007093F5006093F400D4
S11306205093F3004093F2003093F1002093F000D4
S11306301093EF000093EE001F910F9108951F9205
S11306400F920FB60F9211248F939F93EF93FF9302
S11306508091A800853429F128F4833441F084344E
S113066099F045C0863451F18734A9F140C0E09136
S1130670F600F091F70084B195B19183808384E40E
S113068087B98093A80033C0E091F400F091F5009D
S113069084B195B19183808385E487B98093A80060
S11306A026C0E091F200F091F30084B195B19183FA
S11306B0808386E487B98093A80019C0E091F00094
S11306C0F091F10084B195B19183808387E487B977
S11306D08093A8000CC0E091EE00F091EF0084B18B
S11306E095B19183808383E487B98093A80086B110
S11306F0806486B9FF91EF919F918F910F900FBE07
S11307000F901F901895623008F088C09DEC899F67
S1130710912D1124969596959695392F330F232F65
S1130720220F220F230F821B282F662319F061301A
S1130730E9F176C0913099F028F09230E9F09330E5
S113074041F170C03AB381E090E002C0880F991F74
S11307502A95E2F7809583238ABB81E0089537B315
S113076081E090E002C0880F991F2A95E2F78095F6
S1130770832387BB81E0089534B381E090E002C015
S1130780880F991F2A95E2F78095832384BB81E023
S1130790089531B381E090E002C0880F991F2A9533
S11307A0E2F78095832381BB81E00895913091F035
S11307B028F09230D9F0933029F136C03AB381E071
S11307C090E002C0880F991F2A95E2F7832B8ABB19
S11307D081E0089537B381E090E002C0880F991F4B
S11307E02A95E2F7832B87BB81E0089534B381E037
S11307F090E002C0880F991F2A95E2F7832B84BBEF
S113080081E0089531B381E090E002C0880F991F20
S11308102A95E2F7832B81BB81E0089582E0089555
S113082082E0089582E0089582E00895623008F03D
S113083088C09DEC899F912D112496959695969547
S1130840392F330F232F220F220F230F821B282F20
S1130850662319F06130E9F176C0913099F028F0FF
S11308609230E9F0933041F170C03BB381E090E005
S113087002C0880F991F2A95E2F7809583238BBBCA
S113088081E0089538B381E090E002C0880F991F99
S11308902A95E2F78095832388BB81E0089535B3D8
S11308A081E090E002C0880F991F2A95E2F78095B5
S11308B0832385BB81E0089532B381E090E002C0D8
S11308C0880F991F2A95E2F78095832382BB81E0E4
S11308D00895913091F028F09230D9F0933029F1B5
S11308E036C03BB381E090E002C0880F991F2A957F
S11308F0E2F7832B8BBB81E0089538B381E090E06D
S113090002C0880F991F2A95E2F7832B88BB81E0E8
S1130910089535B381E090E002C0880F991F2A95AD
S1130920E2F7832B85BB81E0089532B381E090E048
S113093002C0880F991F2A95E2F7832B82BB81E0BE
S1130940089582E0089582E0089582E0089582E0A7
S113095008951F920F920FB60F9211242F933F9375
S11309604F935F936F937F938F939F93AF93BF93B3
S1130970EF93FF938091F8009091F900009729F08C
S1130980E091FE00F091FF000995FF91EF91BF9176
S1130990AF919F918F917F916F915F914F913F9113
S11309A02F910F900FBE0F901F9018951F920F92CA
S11309B00FB60F9211242F933F934F935F936F932E
S11309C07F938F939F93AF93BF93EF93FF93809104
S11309D0FA009091FB00009729F0E0910001F0915A
S11309E001010995FF91EF91BF91AF919F918F9173
S11309F07F916F915F914F913F912F910F900FBE17
S1130A000F901F9018951F920F920FB60F921124FA
S1130A102F933F934F935F936F937F938F939F9302
S1130A20AF93BF93EF93FF938091FC009091FD00EF
S1130A30009729F0E0910201F09103010995FF91DB
S1130A40EF91BF91AF919F918F917F916F915F9142
S1130A504F913F912F910F900FBE0F901F901895BB
S1130A601F920F920FB60F9211242F933F934F931F
S1130A705F936F937F938F939F93AF93BF93EF9302
S1130A80FF938091080190910901A0910A01B0910E
S1130A900B010196A11DB11D8093080190930901DA
S1130AA0A0930A01B0930B01892B8A2B8B2B91F411
S1130AB0E0910E01F0910F0180910C0190910D01D4
S1130AC00995109208011092090110920A011092DE
S1130AD00B0112BEFF91EF91BF91AF919F918F9146
S1130AE07F916F915F914F913F912F910F900FBE26
S1130AF00F901F9018951F920F920FB60F9211240A
S1130B002F933F934F935F936F937F938F939F9311
S1130B10AF93BF93EF93FF938091040190910501EC
S1130B20A0910601B09107010196A11DB11D80930A
S1130B30040190930501A0930601B093070140912D
S1130B4010015091110160911201709113018417E9
S1130B509507A607B70789F4E0910E01F0910F01FC
S1130B6080910C0190910D0109951092040110924D
S1130B7005011092060110920701FF91EF91BF91B8
S1130B80AF919F918F917F916F915F914F913F9121
S1130B902F910F900FBE0F901F9018951F920F92D8
S1130BA00FB60F9211240F900FBE0F901F9018953F
S1130BB01F920F920FB60F9211242F933F934F93CE
S1130BC05F936F937F938F939F93AF93BF93EF93B1
S1130BD0FF9380911C0190911D01A0911E01B09181
S1130BE01F010196A11DB11D80931C0190931D014D
S1130BF0A0931E01B0931F01892B8A2B8B2B89F4A0
S1130C00E0912201F0912301809120019091210132
S1130C10099510921C0110921D0110921E01109250
S1130C201F01FF91EF91BF91AF919F918F917F91A0
S1130C306F915F914F913F912F910F900FBE0F9045
S1130C401F9018951F920F920FB60F9211242F9395
S1130C503F934F935F936F937F938F939F93AF9340
S1130C60BF93EF93FF938091180190911901A09184
S1130C701A01B0911B010196A11DB11D80931801A9
S1130C8090931901A0931A01B0931B01892B8A2B0D
S1130C908B2B89F4E0912201F091230180912001B2
S1130CA09091210109951092180110921901109246
S1130CB01A0110921B01FF91EF91BF91AF919F9187
S1130CC08F917F916F915F914F913F912F910F90F1
S1130CD00FBE0F901F9018951F920F920FB60F9290
S1130CE011242F933F934F935F936F937F938F932D
S1130CF09F93AF93BF93EF93FF93809114019091CF
S1130D001501A0911601B09117010196A11DB11D05
S1130D108093140190931501A0931601B0931701C9
S1130D204091260150912701609128017091290179
S1130D3084179507A607B707B9F4E0912201F0914B
S1130D4023018091200190912101099510921401B1
S1130D50109215011092160110921701809124012E
S1130D60909125019DBD8CBDFF91EF91BF91AF91F5
S1130D709F918F917F916F915F914F913F912F91AF
S1130D800F900FBE0F901F901895A1E21A2EAA1B68
S1130D90BB1BFD010DC0AA1FBB1FEE1FFF1FA21727
S1130DA0B307E407F50720F0A21BB30BE40BF50B24
S1130DB0661F771F881F991F1A9469F760957095AD
S1130DC0809590959B01AC01BD01CF010895F894E5
S1050DD0FFCF4F
S1130DD2A900B300BF00CF00D400DF00BA00D600E0
S1130DE2DA00EC00E1006D0073008C0083008600E1
S1130DF2CD00E300F6008800E0008200E3008500F5
S1130E029000EE00CD00E3009900A000D7007F001F
S1130E12C300CE00A0009D00434F70656E20486160
S1130E226E6400436C6F7365642048616E640049AC
S1130E32205265616C6C79204C6F766520550052A6
S1130E426F636B0049204C6F766520596F750049BA
S1110E52276D205761746368696E6720550030
S9030000FC
